{
  "contractName": "PetCreation",
  "abi": [
    {
      "anonymous": false,
      "inputs": [
        {
          "indexed": false,
          "internalType": "uint256",
          "name": "id",
          "type": "uint256"
        },
        {
          "indexed": false,
          "internalType": "string",
          "name": "name",
          "type": "string"
        }
      ],
      "name": "PetAdded",
      "type": "event"
    },
    {
      "constant": true,
      "inputs": [
        {
          "internalType": "uint256",
          "name": "",
          "type": "uint256"
        }
      ],
      "name": "pets",
      "outputs": [
        {
          "internalType": "string",
          "name": "name",
          "type": "string"
        },
        {
          "internalType": "uint256",
          "name": "id",
          "type": "uint256"
        },
        {
          "internalType": "address",
          "name": "owner",
          "type": "address"
        },
        {
          "internalType": "bool",
          "name": "missing",
          "type": "bool"
        },
        {
          "internalType": "string",
          "name": "area",
          "type": "string"
        },
        {
          "internalType": "string",
          "name": "breed",
          "type": "string"
        }
      ],
      "payable": false,
      "stateMutability": "view",
      "type": "function"
    },
    {
      "constant": false,
      "inputs": [
        {
          "internalType": "string",
          "name": "_name",
          "type": "string"
        },
        {
          "internalType": "uint256",
          "name": "_petId",
          "type": "uint256"
        },
        {
          "internalType": "string",
          "name": "_breed",
          "type": "string"
        }
      ],
      "name": "_addPet",
      "outputs": [],
      "payable": false,
      "stateMutability": "nonpayable",
      "type": "function"
    }
  ],
  "bytecode": "0x608060405234801561001057600080fd5b50610677806100206000396000f3fe608060405234801561001057600080fd5b50600436106100365760003560e01c8063cfb869bf1461003b578063f4acaed5146101ff575b600080fd5b6100676004803603602081101561005157600080fd5b810190808035906020019092919050505061035b565b60405180806020018781526020018673ffffffffffffffffffffffffffffffffffffffff1673ffffffffffffffffffffffffffffffffffffffff16815260200185151515158152602001806020018060200184810384528a818151815260200191508051906020019080838360005b838110156100f15780820151818401526020810190506100d6565b50505050905090810190601f16801561011e5780820380516001836020036101000a031916815260200191505b50848103835286818151815260200191508051906020019080838360005b8381101561015757808201518184015260208101905061013c565b50505050905090810190601f1680156101845780820380516001836020036101000a031916815260200191505b50848103825285818151815260200191508051906020019080838360005b838110156101bd5780820151818401526020810190506101a2565b50505050905090810190601f1680156101ea5780820380516001836020036101000a031916815260200191505b50995050505050505050505060405180910390f35b6103596004803603606081101561021557600080fd5b810190808035906020019064010000000081111561023257600080fd5b82018360208201111561024457600080fd5b8035906020019184600183028401116401000000008311171561026657600080fd5b91908080601f016020809104026020016040519081016040528093929190818152602001838380828437600081840152601f19601f82011690508083019250505050505050919291929080359060200190929190803590602001906401000000008111156102d357600080fd5b8201836020820111156102e557600080fd5b8035906020019184600183028401116401000000008311171561030757600080fd5b91908080601f016020809104026020016040519081016040528093929190818152602001838380828437600081840152601f19601f820116905080830192505050505050509192919290505050610599565b005b6000818154811061036857fe5b9060005260206000209060050201600091509050806000018054600181600116156101000203166002900480601f0160208091040260200160405190810160405280929190818152602001828054600181600116156101000203166002900480156104145780601f106103e957610100808354040283529160200191610414565b820191906000526020600020905b8154815290600101906020018083116103f757829003601f168201915b5050505050908060010154908060020160009054906101000a900473ffffffffffffffffffffffffffffffffffffffff16908060020160149054906101000a900460ff1690806003018054600181600116156101000203166002900480601f0160208091040260200160405190810160405280929190818152602001828054600181600116156101000203166002900480156104f15780601f106104c6576101008083540402835291602001916104f1565b820191906000526020600020905b8154815290600101906020018083116104d457829003601f168201915b505050505090806004018054600181600116156101000203166002900480601f01602080910402602001604051908101604052809291908181526020018280546001816001161561010002031660029004801561058f5780601f106105645761010080835404028352916020019161058f565b820191906000526020600020905b81548152906001019060200180831161057257829003601f168201915b5050505050905086565b7ffc4a6f2de01f9552f0798314848d5d8440e7080d50c52f9c8d9ed1cafeba8b1d82846040518083815260200180602001828103825283818151815260200191508051906020019080838360005b838110156106025780820151818401526020810190506105e7565b50505050905090810190601f16801561062f5780820380516001836020036101000a031916815260200191505b50935050505060405180910390a150505056fea265627a7a723158208204a46e8d9015476e394cd374fd0f3e86c2ebc476b26d86eb97d2d13396033564736f6c63430005100032",
  "source": "pragma solidity >=0.5.0 <0.8.0;\n// import '@openzeppelin/contracts/access/Ownable.sol';\n\ncontract PetCreation  {\n\n   event PetAdded(uint id, string name);\n\n   struct Pet {\n      string name;\n      uint id; // 15 digit number \n      address owner;\n      bool missing;\n      string area;\n      string breed;\n   }\n\n   Pet[] public pets;\n   \n\n   function _addPet(string memory _name, uint _petId, string memory _breed) public {\n      // require(_checkIdused(_petId));\n      // pets.push(_name, _petId, msg.sender, false, '' , _breed);\n      emit PetAdded(_petId, _name);\n\n   }\n\n   // function _checkIdUsed(uint _petId) private {\n   //    require (uint.length == 15);  // TEST this \n\n\n\n\n   // }\n\n\n\n\n}\n\n// TO DO\n// add pet to Blockchain\n// update name, (missing, area) if owner. \n// add functions to transfer ownership;\n// check ID is not taken \n\n\n//EXTRA \n// add map of all missing pets \n//include pictures in offline db.\n//connect front end to no sql database for extra info. pictures etc.\n\n\n",
  "sourcePath": "C:/Users/scott/OneDrive/Documents/git_repos/PubPuppy/contracts/PetCreation.sol",
  "compiler": {
    "name": "solc",
    "version": "0.5.16+commit.9c3226ce.Emscripten.clang"
  },
  "schemaVersion": "3.3.4",
  "updatedAt": "2021-02-24T16:42:35.890Z",
  "devdoc": {
    "methods": {}
  },
  "userdoc": {
    "methods": {}
  }
}